:020000040800F2
:10000000C00800201D030008E13D0008013A000877
:10001000DD3D000889200008754A00080000000046
:10002000000000000000000000000000553E000835
:10003000D920000800000000513E0008013F0008E0
:1000400037030008370300083703000837030008A8
:100050003703000837030008370300083703000898
:100060003703000837030008370300083703000888
:100070003703000837030008370300083703000878
:1000800037030008370300083703000800000000AA
:10009000000000000000000000000000370300081E
:1000A0003703000837030008370300083703000848
:1000B0003703000837030008370300083703000838
:1000C0003703000837030008370300083703000828
:1000D000370300083703000837030008000000005A
:1000E000370300083703000837030008000000004A
:1000F00000000000000000000000000037030008BE
:100100000000000037030008370300083703000829
:1001100000000000000000000000000000000000DF
:1001200037030008370300083703000837030008C7
:10013000370300080000000000000000000000007D
:10014000000000000000000000000000370300086D
:100150003703000837030008370300083703000897
:10016000370300083703000800000000000000000B
:10017000000000000000000000000000000000007F
:10018000000000003703000800000000000000002D
:100190003703000800F002F800F0B0F814A696E863
:1001A000000CB244B344DA4501D100F0A7F8BAE834
:1001B0000F000FA696E83000A5EB040504EB060738
:1001C000AAEB0704A7F101074FEA15154FEA34140B
:1001D000A4F10104AC4201D300F090F813F0010F38
:1001E00018BFFB1A43F0010300F001F8DBE71847E2
:1001F000605E0000805E0000103A24BF78C878C1BD
:10020000FAD8520724BF30C830C144BF04680C601C
:1002100070470000704700000023002400250026DE
:10022000103A28BF78C1FBD8520728BF30C148BF59
:100230000B6070476E2900F01F82702900F0558313
:10024000662905F0A485652905F0A185672905F0D3
:100250009E85612905F09D8503681B0A28BF41F032
:100260008001692900F0CC81642900F0C9817529D9
:1002700000F0C6816F2900F0E382782900F0218325
:10028000E92900F07D82E42900F07A82F52900F066
:100290007782EF2900F0E082F82900F020830368DC
:1002A000DB0928BF41F08001632901F039807329FF
:1002B00001F03E80E32901F04980F32901F04E80EE
:1002C000002070471FB505F055FD9DE8030001F0C3
:1002D000FBFB01F039F904000020002105F034FD9A
:1002E000401C60600020002105F018FDE06001F076
:1002F0003DF81FBD10B501F0A2F810BD01F0F6F8F1
:100300001146FFF7DFFF04F0DFFD01F0ADFB03B4A2
:10031000FFF7F0FF03BC01F055FD000009488047DE
:1003200009480047FEE7FEE7FEE7FEE7FEE7FEE7D7
:10033000FEE7FEE7FEE7FEE704480549054A064BEF
:1003400070470000D53F000895010008C00200205A
:10035000C0080020C0040020C004002053EA020CA2
:1003600000F069802DE9F04B4FF00006002B1FBF15
:10037000B3FA83F503FA05F424FA05F65E4012BFDA
:100380001643B2FA82F502FA05F4C5F120051EBF44
:1003900022FA05FC44EA0C04203556EA044C4FEAE4
:1003A000144418BF641C4FF000084FF0000990423D
:1003B00071EB030C39D3002919BFB1FA81F701FAA7
:1003C00007F6B0FA80F700FA07F6C7F120071EBF5C
:1003D00020FA07FC46EA0C062037B6FBF4FCA7EB34
:1003E0000507103F07F01F0BCBF120062CFA06F68D
:1003F0000CFA0BFB44BFB3460026202FA4BF5E4679
:100400004FF0000B5BEA060C08BF4FF0010B19EB35
:100410000B0948EB0608ABFB027C06FB02CC0BFB8E
:1004200003CCC01B71EB0C01C1E70B4602464146F1
:100430004846BDE8F08B13B5084318BF4FF0FF30B6
:100440000146AFF30080BDE81C4070470FB404497B
:1004500010B503AA029800F023F910BC5DF814FB54
:100460006C0000204FF0000200B5134694469646FB
:10047000203922BFA0E80C50A0E80C50B1F12001B7
:10048000BFF4F7AF090728BFA0E80C5048BF0CC065
:100490005DF804EB890028BF40F8042B08BF7047C3
:1004A00048BF20F8022B11F0804F18BF00F8012B35
:1004B000704700000000000030B44FF0013C50F8DD
:1004C000042B51F8043BCCFA52F4D51A20D1FCB9D4
:1004D00050F8042B51F8043BCCFA52F4D51A17D13A
:1004E000B4B950F8042B51F8043BCCFA52F4D51AA5
:1004F0000ED16CB950F8042B51F8043BCCFA52F4ED
:10050000D51A05D1002CDAD030BC4FF0000070476E
:1005100029BAB1FA81F111F01801D1F1200084401B
:10052000F2D1CA40CB4012F0FF0213F0FF0330BCFF
:10053000D01A704770477047704770B50446856998
:100540000068C10601D5302600E02026C00707D08C
:1005500070BDD4E9012130469047206A401C2062DA
:100560006D1EF6D570BD70B5044685690078C0076C
:1005700007D170BDD4E9012120209047206A401C9A
:1005800020626D1EF6D570BD09684A0501D540B2DE
:100590007047C905FCD500B2704709684A0501D506
:1005A000C0B27047C905FCD580B2704770B50C4623
:1005B0000546012A05D02878800600D5EA6900237F
:1005C00002E0012305E05B1C934202D2E05C0028BC
:1005D000F9D1A869E618C01AA861286A18442862E7
:1005E0002846FFF7AAFF04E0D5E9012114F8010B22
:1005F0009047B442F8D32846FFF7B5FF70BD00001E
:100600002DE9F0410646002410687529314616A5EB
:1006100010D0FFF7B9FF002802DA404213A507E027
:1006200031688A0701D512A502E0490704D511A552
:10063000012401E0FFF7B1FF00210A2206F124079F
:1006400009E0B0FBF2FCB0FBF2F302FB1C0030301F
:1006500078541846491C0028F3D123462A463046D0
:10066000BDE8F04100F055BA000000002D00000088
:100670002B0000002000000011680268006A53058A
:1006800001D508700AE0D30501D5088006E01306FD
:1006900003D5C217C1E9000200E0086001207047DD
:1006A000074B70B50D467B4400F01DFE04462846FE
:1006B00000F058FE10B14FF0FF3070BD204670BD05
:1006C000555600002DE9FF5F15468A460446DFF8BF
:1006D000AC80F8440027D8E900103E46CDE9001070
:1006E00010E03AF816106A4602A800F0DBFE411C42
:1006F00007D02178890603D5E269391891420DD8CF
:100700000744761C2078800602D5E069B84205DDF2
:10071000AE42E6DB3AF816000028E2D1A069C01B21
:10072000A0612046FFF709FFD8E90010CDE90010CD
:10073000002017E03AF818106A4602A800F0B2FE4E
:10074000B0F1FF3F81460BD000250DF1080B05E00D
:10075000D4E901211BF8050090476D1C4D45F7D3E6
:1007600008F10100B0428046E4DB206A3844206290
:100770002046FFF7F8FEBDE8FF9F0000C2560000CC
:100780002DE9F0418046D21D22F007020025D2E972
:100790000002F52915A614D0011E72F1000106DA37
:1007A0000023D0EB030063EB020211A608E0D8F8A7
:1007B00000108B0701D50FA602E0490701D50EA650
:1007C00001251146002408F1240704E000F05CF93B
:1007D00030323A55641C50EA0102F7D12B463246BA
:1007E00021464046BDE8F04100F093B9000000000A
:1007F0002D0000002B0000002000000030B400217C
:1008000000F1240408E002F00705D208303542EA7E
:100810004372DB086554491C52EA0305F3D10468AE
:10082000002310A2250708D504F020040C4304D0AF
:10083000C46901230CA2641EC46130BC00F069B914
:1008400010B5044621461068FFF7A7FE0246204671
:10085000BDE810400023D1E7D21D22F00701D1E905
:100860000023CBE70000000030000000F0B40D468C
:100870000188090502D5214C7C4402E01F4C7C44D0
:100880000E34002100F1240608E002F00F071209DF
:10089000E75D42EA03721B097754491C52EA0307D9
:1008A000F3D102780023120704D5702D06D009B1C8
:1008B000022311342246F0BC00F02BB9012310347E
:1008C000F8E770B504460D4621461068FFF765FE4F
:1008D000024629462046BDE870400023C6E7D21DE7
:1008E00022F00703D3E90023C0E70368126843F04E
:1008F000200303600823C3610023B7E724550000E9
:100900002DE9F05F894604464FF0000ADFF874B124
:10091000FB44C0F820A02046E1688847002874D036
:10092000252806D0D4E901219047206A401C206286
:10093000F1E700265F462046E16888472028054603
:1009400007DB312D05D2781910F8200C08B10643C9
:10095000F1E7B00701D526F00406C4F81CA0002773
:10096000C4F818A02A2D09D0284605F0C1F938B3DB
:1009700004EB8708303DC8F8185019E059F8041BFB
:10098000204604EB87029161E1688847012F054604
:1009900018D1E069002820DA26F020061DE0D8F8FA
:1009A000180000EB800005EB40003038C8F8180054
:1009B0002046E1688847054605F09AF90028EED1FF
:1009C000012F0AD02E2D08D12046E16888477F1CD0
:1009D0000546022F46F02006C4DBA069002803DA92
:1009E000404246F00106A061F00701D026F0100653
:1009F0006C2D0BD0682D09D04C2D39D06A2D35D0F7
:100A0000742D35D07A2D33D016E038E0E1682F46CA
:100A100020468847B842054609D16C2F26D04FF4AE
:100A20008060E168064320468847054604E06C2F55
:100A30001AD04FF4807006430DB3A5F14100192878
:100A400002D8203546F400664A46294620462660EC
:100A50004E46FFF7EFFB80B101280BD0F61D26F0C4
:100A6000070000F1080956E74020E4E78020D8E7B6
:100A70000020D6E706F104094DE7284652E7206A30
:100A8000BDE8F09FB454000030B5B0F10A0271F136
:100A900000034FEA900E4EEA817EB0EB0E0061EB50
:100AA00091014FEA101E4EEA017E10EB0E0041EB61
:100AB00011114FEA102E4EEA016E10EB0E0041EBC1
:100AC00011214FEA104E4EEA014E10EB0E0041EBA1
:100AD0001141401841F100014FEAD00040EA417055
:100AE0004FEAD1014FEA810444EA907410EB80058B
:100AF00044EB01046D1944EB0404521BA3414FF075
:100B0000000348BF0A3200D530BD401C41F100014E
:100B100030BD2DE9F0470D4699469246044600F156
:100B200024080168880604D5E06921F010012160DD
:100B300000E00120A84201DD471B00E00027A16979
:100B40007A1902EB0900081AA0612078C00602D4C5
:100B50002046FFF7F2FC002608E0D4E901211AF84C
:100B600006009047206A401C761C20624E45F4DB4C
:100B70002078C0060AD52046FFF7DFFC06E0D4E95E
:100B8000012130209047206A401C2062381EA7F1C6
:100B90000107F4DC07E0D4E9012118F805009047CB
:100BA000206A401C2062281EA5F10105F3DC2046C6
:100BB000FFF7D9FC2078000602D50220BDE8F087B7
:100BC0000120FBE72DE9FF4F0C461E464FF0FF3793
:100BD0008BB0D2E90001DDF860800A908A46C1F34B
:100BE0000A5505B93D46002108464FF00000BAF10C
:100BF000000F00F4400005DA00EB80004FF44001E4
:100C000001EA50004FEA9059B9F1010F00DDB946F1
:100C10000A9850EA4A000ED044F61050A5F2FF356B
:100C200045432F14B8F1000F1ED07542291E1EDD5A
:100C3000C9F100021CE0B8F1010F4FF0000001D033
:100C4000302103E0F24305E02154401CB042FBDBBD
:100C500030460022002121540B99C1F80880C1E9D7
:100C600000200FB0BDE8F08FBD1B6D1CDEE74A46CB
:100C700000DA694206A800F0D3FC06AB93E807004F
:100C800003AB83E8070050460A9904F050FC8DE856
:100C90000700A0F500501F3800900398002D0ADDD2
:100CA00042F21F014A460844002303A90390684604
:100CB00004F0BAFE09E0A0F500504A461F380023B0
:100CC00003A90390684604F0C4FE8DE80700000401
:100CD000000C03D04FF0FF30410800E01046B8F19F
:100CE000000F03D00022009215461EE0751E05D4A9
:100CF000FFF7CAFE303262556D1EF9D5B3460122A8
:100D0000084302D000227F1C04E02078302801D163
:100D100000227F1E002A099784D01DE0112D07DADA
:100D2000FFF7B2FE303262556D1C50EA0102F5D178
:100D3000084302D00098C8B10EE00021681E05E00B
:100D4000235C625C63542254401E491C8142F7DBE1
:100D5000AB46A81B401E0990002004F80B000B981E
:100D6000099AC0F80880C0E9002B7AE711264FF0F5
:100D7000000857E72DE9F04F88460446D21D22F0BF
:100D8000070191B0D1E90001CDE90A0104F098FF13
:100D900002460B98C00F01D02D2007E02068810784
:100DA00001D52B2002E0202101EAC000032A09908E
:100DB00001D0072A05DB03464146204600F0F0FB40
:100DC0000BE12078800601D5E06900E00620B8F14B
:100DD000650F814606D0B8F1660F18D0B8F1670FDD
:100DE00070D131E00020B9F1110F009001DB112327
:100DF00001E009F101030AAA01A90CA8FFF7E2FE2C
:100E0000DDE90C70002609F10105834647E0012069
:100E10004B4600904FF000470AAA01A90CA8FFF723
:100E2000D1FEDDE90DB00C995D46002610B909F13F
:100E300001000D18B9EB050003D4C0F1FF3609F12C
:100E40000105A5EB09002BE0B9F1010F01DA4FF024
:100E500001090020B9F1110F0090484601DD11236E
:100E600000E003460AAA01A90CA8FFF7ABFEDDE9E2
:100E70000C704D4600268346207800070AD4AB4507
:100E800000DA5D4601A8012D04DD411911F8011CAD
:100E9000302907D04F4502DA17F1040F04DA012098
:100EA00082460FE06D1EEEE7002F02DCED1B3E4494
:100EB00003E0781CA84200DD7D1CB81B00F1010A8C
:100EC0004FF000472078000703D4AA4501DB4FF01C
:100ED000FF3A0021B7F1004F0DF143088DF84310A0
:100EE00024D002202B23002F01DA7F422D230A2158
:100EF000021EA0F1010000DC5FB197FBF1FC97FB43
:100F0000F1F201FB1C7C17460CF1300C08F801CD06
:100F1000EEE7A8F1010003702188090501D54521FC
:100F200000E06521A0F1010800F8011C09980FA953
:100F3000A1EB0807FF1D00B10120411901EBEA7088
:100F4000A1693844081A401EA0612078C00602D466
:100F50002046FFF7F2FA099828B1D4E90121904719
:100F6000206A401C20622078C00622D52046FFF768
:100F7000E4FA1EE0002E04DBB34502DD01A8805D2B
:100F800000E03020D4E901219047206A401C206213
:100F9000761CAAF101005FEA000A0AD100F0D4FA37
:100FA000C0680168405CD4E901219047206A401C78
:100FB0002062281EA5F10105DCDC07E0D4E901214F
:100FC00018F8010B9047206A401C2062381EA7F1D8
:100FD0000107F3DC2046FFF7C6FA032011B041E613
:100FE0002DE9F04F04460D46D21D22F0070089B0CE
:100FF000D0E900974846394604F062FE0246F80FF1
:1010000001D02D2307E02068810701D52B2302E0C2
:10101000202101EAC0038DF820300BB1012000E04F
:101020000020032A824601D0072A04DB29462046F5
:1010300000F0B6FA3FE12078800601D40D2500E0EB
:10104000E569C7F30A560D2D49DA00214FEA175B0F
:1010500008464FF00000002F00F4400007DA00EBD4
:1010600080004FF4400100EBD07001EA6000811570
:10107000012901DD4FF0FF3100224FEA850CBCF160
:10108000180F06D31346ACF118004FF08052C2403F
:1010900003E04FF4801323FA0CF30CF10C0CBCF1B9
:1010A000200F04D3ACF1200C09FA0CF001E007FA90
:1010B0000CF000294FF0004801DD18B90FE00ED107
:1010C00040450CD319EB02095F4121B9404502D1DB
:1010D0009F4329EA0209BBEB175F00D0761C2088EA
:1010E000000502D57B48784402E07A4878441938F4
:1010F00008AA302302F80A30037C0AF10101002E0D
:101100000AF1020A53546A4602DC4FF0300101E052
:101110004FF031014FF001088DF8001002D0A6F217
:10112000FF3603E059EA470100D06B4E002D02DC88
:101130002178090704D54FF002082E218DF80110FF
:10114000C44600210BE0C7F303433F01C35C491CC5
:101150006D1E02F80830052908F1010801DA002D9A
:10116000F1DC00210CE000EB1973491C1B786D1EAB
:10117000082902F808304FEA091908F1010801DAD4
:10118000002DF0DC21688B0602D516E0A8F10108DD
:10119000E04505DD02EB080313F8013C302BF5D0E8
:1011A000B8F1000F09DD02EB080313F8013C2E2B08
:1011B00003D1090701D4A8F10108002D05DD3E2166
:1011C00002F808106D1E08F10108407C002E02F89C
:1011D000080008F1010804DA2D20764202F8080020
:1011E00002E02B2002F808000A214FF47A708642B0
:1011F00008F101080BDB96FBF0F3303302F80830FE
:1012000096FBF0F308F1010800FB136601E0642E81
:101210000CDB642096FBF0F3303302F8083096FBC9
:10122000F0F308F1010800FB136601E00A2E06DB6B
:1012300096FBF1F0303002F8080008F1010896FB47
:10124000F1F001FB1060303002F80800A16908F1EC
:10125000010808EB050202EB0A00081AA0612078D9
:10126000C00602D42046FFF768F9216A08AE01EBF8
:101270000A00206204E0D4E9012116F8010B90472E
:10128000BAF1010AF7D22078C00602D52046FFF74E
:1012900054F96E4609E016F8010B3E280FD0D4E948
:1012A00001219047206A401C2062B8F10108F2D267
:1012B0002046FFF758F909B00320BDE8F08F206AF7
:1012C0002844206203E0D4E90121302090476D1EBC
:1012D000EBD3F8E7024D000002FCFFFF01694A1C56
:1012E00002610878704700B58FB0CDE90131002167
:1012F000059105497944CDE9031011466846FFF789
:10130000FFFA0FB000BD0000E5FFFFFF10B5436915
:1013100013B1AFF3008001E0FFF748F9012010BDE1
:10132000127800F124010A7000224A700122EDE7D0
:1013300011684FF0FF32E9E710B5436913B1AFF31D
:10134000008001E0FFF7BEF9012010BD128800F116
:10135000240182840022C2840122EDE711684FF04B
:10136000FF32E9E7007B00F08000704710B542488B
:101370005421FFF777F841485421FFF773F84048AC
:101380005421FFF76FF83F493B483C4A3F4B086008
:101390003D490A603A491960531C0365481C1065B1
:1013A000012008653B48344A39A1784400F0BEFA70
:1013B00020B9384878440A3800F05FFB37482F4A94
:1013C00035A1784400F0B2FA20B9344878440A389C
:1013D00000F053FB32482A4A2FA1784400F0A6FAC5
:1013E00020B92F4878440A3800F047FB40232248B0
:1013F000DC000021224600F076FA20B1254878442E
:10140000543800F03AFB1D4822464023002100F0EA
:101410006AFA20B121487844543800F02EFB18486D
:1014200022461023002100F05EFA002806D01C4856
:101430007844BDE81040563800F01FBB10BD10487E
:1014400070B5006D20F001040B4800F0E7FA0B487E
:1014500000F0E4FA0A4800F0E1FA09E0206D20F01B
:101460000105204600F0DAFA204600F071F82C461B
:10147000002CF3D170BD0000180000206C0000208B
:10148000C000002000000020040000200800002010
:1014900072000000064B000077000000F54A0000D3
:1014A000CE4A00002DE9F04116460C46054600F0F4
:1014B00043F8036893F80101012807D0FF2C12D8E4
:1014C000185D80B101202C70BDE8F081D3F80701D0
:1014D0003246214603F20713C7182846BC46BDE82A
:1014E000F041002360474FF0FF30EDE7754600F014
:1014F000CBFAAE4605006946534620F00700854604
:1015000018B020B5FEF718FFBDE820404FF00006E8
:101510004FF000074FF000084FF0000BAC46ACE86E
:10152000C009ACE8C009ACE8C009ACE8C00921F0CA
:1015300007018D467047000010B500F005F8001D4A
:1015400010BD00BF0548000000487047340100206E
:1015500070B50446051F00F09BFA0068002C14BF0C
:10156000446870BD002C18BFAC423CBF2046646884
:10157000F8D301680A18AA4218BF456003D12A6847
:1015800005461144016028684119A1421CBF6C60E6
:1015900070BD6168696021680844286070BD000002
:1015A0002DE9F0411F46044603260168072A01F48D
:1015B000006004DB08B116A505E016A503E008B13C
:1015C00015A500E015A521F010002060A069C01E3F
:1015D000A0610FB1401EA0612046FEF7AEFF4FB1E3
:1015E000D4E9012138469047206A401C2062C01C83
:1015F000206206E0206AFAE7D4E9012115F8010B20
:101600009047761EF8D22046FEF7ADFFBDE8F08188
:101610004E414E006E616E00494E4600696E660096
:101620002DE9F047814616468AB0354878440DC802
:101630008DE80D0032487844801C03AC0DC884E866
:101640000D0041F69B300844372190FBF1F290FBEE
:10165000F1F5A5F1800501FB12041B3C02D56442A3
:10166000012000E00020DFF898A080460027FA441F
:10167000AAF1BE0A0EE0E0070AD03246684607EB40
:10168000470101230AEB810104F0E3F98DE807002B
:1016900064107F1C002CEED1194F7F44AE3F19E03F
:1016A000E80715D007EB04100DF1180A90E80E00BA
:1016B0008AE80E00C068F04201D1981908903246BD
:1016C000012306A903A804F0C4F903AB83E80700CB
:1016D0006D10641C002DE3D14FF0010332466946C2
:1016E000B8F1000F03A802D004F09EF901E004F065
:1016F000B0F9C9E90001C9F808200AB0BDE8F087CF
:101700004C4800002DE9F05F054617460C46C868B6
:1017100020F4201040F48000C860800602D50846FE
:1017200000F00FFBE06841F282014FF0FF3A014008
:10173000022903D0204600F0A1FAB9E000F42041CC
:10174000B1F5004F0FD1C00306D56168E06A884249
:1017500000D80846606006E02069E0626060606969
:1017600003F01AFAA061A0680022EEB200280DDA98
:10177000E1688B050AD4C043A06041F49030226038
:10178000E0606068411C61600670AAE0E068914614
:10179000226040F40050E060206978BB606903F08B
:1017A0001FFA04F124054FF00108A8B1A08910F434
:1017B000407F08D0E06900F0B6F9206118B1E06818
:1017C00040F4006017E0C4F81C802561E06820F454
:1017D000407040F480600EE0E06900F0A4F9002859
:1017E0002061F0D0E06840F4006010F4407FE060D9
:1017F00002D140F48070E06020696060E068256993
:101800006FF0010BC1051ED56168E06A884200D8FF
:101810000846411B04D02246284600F039FAE8BBAE
:101820001FB1E562C4E9015959E0681CE0626060DB
:10183000E069401EA060E06840F48030E06030461F
:101840002E70BDE8F09F17B100F480320AE06068A6
:10185000411C61600670E0680A2E40F48030E06050
:1018600006D00022E16A6068814203D90B4602E09B
:101870000122F7E70346B4F80CC05B1B5FEA4C5C3F
:1018800004D4D4F81CC09C4500DD02B3814200D8CA
:101890000146002BA1EB0008E56200E008E0C4E986
:1018A000015907DD22461946284600F0F1F908B132
:1018B0005046C6E7B8F1000F09D0A169E56265603E
:1018C000A1EB0800A061E06840F01000E06047B1C3
:1018D0006168A069E562491B08446560A0615846DB
:1018E000AFE73046ADE770B5C468A50713D0650211
:1018F00011D4B2F5807F09D0B2F5007F06D0B2F5E1
:10190000806F08D1012300F1240106E05D1E6FF015
:101910007F46B54201D3012070BD0161C3614160C2
:1019200024F470611143C160002070BD2DE9F041C5
:101930000C461646070047D0104600F06FF8207896
:10194000611C61280AD0722802D077283CD102E0BD
:101950000125002405E00225042402E0082448F2C1
:10196000020511F8010B2B2806D0622809D011F8C6
:10197000010C74280AD00BE045F0030544F0020482
:10198000EFE745F0040544F00104EAE744F01004F1
:101990003846214603F048F9411C15D00021316139
:1019A00071604FF40071F560F1617061200704D53A
:1019B00030460222002100F0E5F8306D40F00100D1
:1019C00030653046BDE8F0810020FBE72DE9F041AD
:1019D0000D460646104C206DC10704D0410804D0C6
:1019E00020F00104F7E722460EE0542000F09BF8B7
:1019F00007000ED0206D47F00101084354212065F7
:101A00003846FEF72FFD3A4629463046BDE8F041FC
:101A10008CE70020D6E70000180000202DE9F047F1
:101A200004464FF0FF380026C568D4E90497A8079C
:101A300018D0204600F062F9384603F087F80028F5
:101A400000DA4646280502D54846FFF781FD4C21BD
:101A50002046FEF707FD206D20F00100206530468E
:101A6000BDE8F0874046FBE710B50446AFF30080C1
:101A70002046BDE81040FEF74ABC10B500F088F9DA
:101A8000BDE8104000F07EB9004870471401002006
:101A9000004870471C01002070477047704770472E
:101AA00038B504460A4600206946AFF30080002896
:101AB00008BF38BD02460099204600F08FF901208A
:101AC00038BD012000F0DEB9F8B5AFF3008005465F
:101AD00000200C460C2000BF0646A819A0420DD9D4
:101AE000324669460020AFF30080070008BF00F0CF
:101AF000C9F90098A04218BF0546C419FFF7C8FFEE
:101B000005600746F01D20F007004619284600F042
:101B10005FF9B44208BFF8BDA21B31463868BDE882
:101B2000F84000F05BB970B50646FFF7B1FF0568F5
:101B300006F10B0020F00704B4429CBF002070BDEA
:101B40002B466A68BAB11068A04210D304F10801AC
:101B500088423CBF5068586007D3516810194160F3
:101B60001168091B016058601460101D70BD134698
:101B70005268002AE7D121462846FFF791FF002846
:101B8000DED170BD2DE9F041044616460D46476989
:101B9000007B80072ED0384603F022F850BB3EB3BE
:101BA000012E02D0022E25D104E0204600F030F9AB
:101BB00005441DE0384602F0EFFFE168002841F0DF
:101BC0001001E16005DA204600F058F80120BDE878
:101BD000F081C9030BD56268E16A914200D81146D1
:101BE000A26911442269891A814200DD0846054430
:101BF000002D01DA0220EAE7E16A6068E2688142CA
:101C000006D29103E06203D522F4003141F01002C4
:101C1000A6690027AE4213DCE16A814201D90B4676
:101C200000E0034603EB060C2369ACEB030CAC4568
:101C300006DD814201D98C4600E084469C4505D1F1
:101C4000A760276042F02000A5620DE0AD1BE669A9
:101C5000AE1B8142A66000D90846C01A281A20602F
:101C60005819606022F0200003490840E06000201D
:101C700084F84870ABE70000BFCFD7FFC16821F4FC
:101C8000001141F08001C160002181600160704756
:101C90002DE9F74F15460C464FF0FF3B3848D76803
:101CA000D2F814A0074209D05046A96902F0FEFFFD
:101CB000002819DB3248C0430740EF604FF000496D
:101CC0006FF000484C4501D3464600E02646009997
:101CD0003B465046324603F013F8A96920F0004213
:101CE000B21A1144A96128B12846FFF7C7FF584628
:101CF000BDE8FE8FA41BE5D10020F9E770B50446CE
:101D00000569C06A6168884200D80846E16821F424
:101D10002011E160C90312D5A84208D02246411B18
:101D20002846FFF7B5FF10B14FF0FF3070BD00201F
:101D3000E562C4E90150E06820F48030E0600020F2
:101D400070BD10B50446C06820F02000E060A16AB4
:101D5000A06988420DD02046FFF7D0FFE06820F44C
:101D6000405040F01000E060A06AA0612069E0628D
:101D7000606044F24001E0688843E06010BD00000C
:101D800010000200002801D000F01CB870470000CD
:101D900010B5014602A000F05CF8012010BD000063
:101DA00053494752545245443A205265646972651A
:101DB00063743A2063616E2774206F70656E3A20F9
:101DC0000000000001491820ABBEFEE7260002001B
:101DD00000210160416070470C2070470346406855
:101DE0008C46002818BF88423CBF03464068F8D3A1
:101DF00018681844884207D00CF1030020F007004F
:101E0000001D411A521A0146081D0A60FFF7A0BBC7
:101E100010B50146C268900703D0900607D5886ABE
:101E20000AE000F03FF801210160881E10BD8B69B7
:101E3000486818440B69C01A91F848301BB191F8F2
:101E40004910401A10BD1103FCD50028FADD401ED0
:101E500010BD70B505460C460A2000E06D1C00F070
:101E600018F835B128780028F8D102E0641C00F099
:101E700010F814B120780028F8D1BDE870400A208D
:101E800000F007B810B500F011F8BDE81040FFF7FA
:101E900079BF08B569468DF800000320ABBE08BDC8
:101EA00070470000004870471401002010B5012859
:101EB00005D0002103A0FFF7CCFF012010BD09A130
:101EC000F8E7000053494752544D454D3A204F75AD
:101ED00074206F662068656170206D656D6F727922
:101EE000000000003A2048656170206D656D6F72DA
:101EF0007920636F727275707465640082B00190AE
:101F000042F20030C4F2010000900099486820F4C9
:101F10004030486001984268009948681043486022
:101F200001980168486820F4807048600198016851
:101F30000269486840EA02204860019801684868E0
:101F400020F040704860019801688268486810433A
:101F5000486001980168886820F4006088600198F2
:101F60000168C2688868104388600198806A01210E
:101F7000C0F60071884219D0FFE7019801688868AF
:101F800020F07060886001980168826A8868104358
:101F9000886001980168886820F040508860019846
:101FA0000168C26A8868104388600CE00198016883
:101FB000886820F07060886001980168886820F067
:101FC00040508860FFE701980168886820F00200AF
:101FD00088600198027E0168886840EA4200886053
:101FE000019890F82000C8B1FFE70198016848689F
:101FF00040F40060486001980168486820F460403F
:10200000486001980168426A4EF20000CFF6FF7006
:1020100000EB423248681043486006E001980168CE
:10202000486820F400604860FFE701980168C86ACA
:1020300020F47000C86201980168C2690020CFF6E0
:10204000F07000EB0252C86A1043C8620198016840
:10205000886820F400708860019890F8302001684A
:10206000886840EA4220886001980168886820F406
:1020700080608860019801684269886840EA82202F
:10208000886002B070470000FFE7FEE743F63001CA
:10209000C4F20201086840F00400086040F6000144
:1020A000C4F20201086820F04060086040F60801B0
:1020B000C4F20201086820F040600860086840F03F
:1020C0008060086040F60C01C4F20201086820F04C
:1020D00040600860002070477047000072B6FFE75C
:1020E000FEE7000085B00390029100200190FFE719
:1020F000039890F83C00012804D1FFE702208DF8F6
:102100001300F7E00399012081F83C00FFE7FFE7A7
:10211000029800680A281CD3FFE70298008800EBA9
:102120004000A0F11E01072000FA01F203980168A7
:10213000C8689043C86002998868098801EB41012A
:102140001E3900FA01F203980168C8681043C8609C
:1021500018E00298008800EB4001072000FA01F225
:1021600003980168086990430861029988680988A2
:1021700001EB410100FA01F203980168086910437C
:102180000861FFE70298406806281BD8FFE702981D
:10219000406800EB8000411F1F2000FA01F2039805
:1021A0000168486B9043486302990888496801EBCD
:1021B0008101053900FA01F203980168486B104368
:1021C00048633DE0029840680C281CD8FFE702985D
:1021D000406800EB8000A0F123011F2000FA01F20B
:1021E00003980168086B904308630299088849685E
:1021F00001EB8101233900FA01F203980168086BB1
:10220000104308631BE00298406800EB8000A0F1D7
:1022100041011F2000FA01F203980168C86A904347
:10222000C86202990888496801EB8101413900FAC6
:1022300001F203980168C86A1043C862FFE7FFE72C
:1022400042F20030C4F2010000900398006842F2AC
:102250000001C4F2010188420BD1FFE70298006837
:10226000122806D1FFE70099486840F480004860D2
:10227000FFE70398006842F20001C4F201018842BE
:102280002ED1FFE702980068102805D0FFE70298DA
:102290000068112824D1FFE70099486840F4000045
:1022A000486002980068102819D1FFE740F20C003E
:1022B000C2F2000000684DF68361C4F21B31A0FB3E
:1022C0000110800C00EB800040000190FFE70198B6
:1022D00020B1FFE7019801380190F8E7FFE7FFE739
:1022E000FFE70399002081F83C00FFE700208DF80C
:1022F0001300FFE79DF8130005B0704780B584B068
:10230000029000208DF80700029820B9FFE7012015
:102310008DF80F0042E00298806A0121C0F600713A
:10232000884201D0FFE7FFE70298006C50B9FFE751
:10233000029800F037F8029900204864029981F869
:102340003C00FFE70298006CC006002817D4FFE7A6
:102350000298006C40F0020020F488500299086452
:102360000298FFF7CBFD0299002048640298006CA8
:1023700040F0010020F002000299086403E001200F
:102380008DF80700FFE7FFE70299002081F83C0085
:10239000FFE79DF807008DF80F00FFE79DF80F009D
:1023A00004B080BD80B588B00790002006900590ED
:1023B0000490039002900798006842F20001C4F272
:1023C000010188422FD1FFE7FFE70020019043F68B
:1023D0004400C4F20200016841F4807101600068A9
:1023E00000F4807001900198FFE7FFE70020009063
:1023F00043F63000C4F20200016841F001010160BF
:10240000006800F0010000900098FFE713200290A0
:1024100003200390002004900020C4F2020002A9CF
:1024200000F026F8FFE708B080BD000080B584B05A
:10243000039000F0E7F902900398019001980130B1
:1024400048B1FFE740F21000C2F2000001780198A5
:1024500008440190FFE7FFE700F0D4F90299401A21
:102460000199884201D2FFE7F6E704B080BD000081
:102470008BB00A9009910020079006900590089073
:10248000FFE708980F2800F2A281FFE708990120D2
:1024900088400790099800680799084006900698B8
:1024A0000799884240F08E81FFE70998406800F064
:1024B0000300012807D0FFE70998406800F00300F7
:1024C00002282FD1FFE70A988068059008984100FC
:1024D000032000FA01F10598884305900998C06827
:1024E0000899490000FA01F10598084305900598FC
:1024F0000A9988600A98406805900899012000FAB6
:1025000001F105988843059009984068C0F30010D0
:10251000089900FA01F105980843059005980A9971
:102520004860FFE70998406800F00300032818D0CE
:10253000FFE70A98C068059008984100032000FA58
:1025400001F1059888430590099880680899490029
:1025500000FA01F105980843059005980A99C860AA
:10256000FFE70998406800F00300022826D1FFE742
:102570000A9808996FF0030202EA51010844006AC0
:102580000590089800F0070081000F2000FA01F183
:1025900005988843059009980069089901F007019A
:1025A000890000FA01F105980843059005980A99F9
:1025B000089B02EA530211440862FFE70A98006888
:1025C000059008984100032000FA01F1059888431E
:1025D00005900998406800F003000899490000FA46
:1025E00001F105980843059005980A990860099833
:1025F00080798007002800F0E480FFE7FFE70020F3
:10260000049043F64400C4F20200016841F48041A2
:102610000160006800F4804004900498FFE7089887
:1026200020F0030043F60801C4F201014058059070
:10263000089800F0030081000F2000FA01F10598CE
:10264000884305900A980021C4F20201884203D110
:10265000FFE70020039034E00A9840F20041C4F202
:102660000201884203D1FFE70120029026E00A9888
:1026700040F60001C4F20201884203D1FFE70220C4
:10268000019018E00A9840F60041C4F20201884225
:1026900003D1FFE7032000900AE00A9941F200020B
:1026A000C4F202020720914208BF04200090FFE715
:1026B00000980190FFE701980290FFE702980390CD
:1026C000FFE70398C0B2089901F00301890000FAFE
:1026D00001F10598084305900598089921F0030138
:1026E00043F60802C4F20102885043F60840C4F2DF
:1026F000010000680590069905988843059009989F
:102700008079C006002805D5FFE70699059808439B
:102710000590FFE7059843F60841C4F201010860FF
:1027200043F60C40C4F20100006805900699059834
:1027300088430590099880798006002805D5FFE731
:102740000699059808430590FFE7059843F60C4164
:10275000C4F20101086043F60440C4F201000068BD
:102760000590069905988843059009988079800717
:10277000002805D5FFE70699059808430590FFE76F
:10278000059843F60441C4F20101086043F6004095
:10279000C4F20100006805900699059888430590E9
:1027A00009988079C00728B1FFE706990598084382
:1027B0000590FFE7059843F60041C4F20101086067
:1027C000FFE7FFE7FFE708980130089059E60BB0F4
:1027D0007047000082B00190ADF802108DF8012022
:1027E0009DF8010028B1FFE7BDF80200019988615A
:1027F00005E0BDF80200000401998861FFE702B01E
:102800007047000040F2BC20C2F200000068704730
:1028100040F21000C2F20000027840F2BC21C2F285
:1028200000010868104408607047000080B543F656
:102830000041C4F20201086840F4007008600868B2
:1028400040F480600860086840F4807008600320ED
:1028500000F080F80F2000F005F800F03BF80020B1
:1028600080BD000080B582B0009040F20C00C2F242
:102870000000006840F21001C2F200010A784FF433
:102880007A71B1FBF2F1B0FBF1F000F09BFD20B1E9
:10289000FFE701208DF8070018E000980F280DD8F9
:1028A000FFE700994FF0FF30002200F039F8009860
:1028B00040F21401C2F20001086003E001208DF82B
:1028C000070003E000208DF80700FFE79DF80700F0
:1028D00002B080BD82B0FFE70020019043F64400C3
:1028E000C4F20200016841F480410160006800F414
:1028F000804001900198FFE7FFE70020009043F639
:102900004000C4F20200016841F08051016000689B
:1029100000F0805000900098FFE702B07047000080
:1029200080B586B08DF817000491039200200290C4
:1029300002F0A2F802909DF9170001900298049904
:10294000039A01F04FFA0146019802F0BFF806B071
:1029500080BD000080B582B00190019802F0D8F8E7
:1029600002B080BD80B584B002900191029820B978
:10297000FFE701208DF80F0021E1019843F60041A7
:10298000C4F20201096801F00701884212D9FFE789
:10299000019943F60040C4F202000170006800F0A3
:1029A00007000199884204D0FFE701208DF80F004D
:1029B00005E1FFE702980078800700282AD5FFE7A5
:1029C000029800784007002809D5FFE743F6080180
:1029D000C4F20201086840F4E0500860FFE7029882
:1029E00000780007002809D5FFE743F60801C4F284
:1029F0000201086840F460400860FFE743F6080100
:102A0000C4F20201086820F0F000029A92681043B4
:102A10000860FFE702980078C00700286ED0FFE743
:102A200002984068012811D1FFE743F60000C4F284
:102A30000200006800F400310020B0EB514F04D1D7
:102A4000FFE701208DF80F00B9E02CE00298406804
:102A5000022805D0FFE702984068032811D1FFE75C
:102A600043F60000C4F20200006800F0007100208C
:102A7000B0EB516F04D1FFE701208DF80F009EE00D
:102A800010E043F60000C4F20200006800F002010A
:102A90000020B0EB510F04D1FFE701208DF80F00AB
:102AA0008DE0FFE7FFE743F60801C4F20201086882
:102AB00020F00300029A526810430860FFF7A2FE5C
:102AC0000090FFE743F60800C4F20200006800F03F
:102AD0000C0002994968B0EB810F0ED0FFE7FFF7B9
:102AE00091FE0099401A41F28931884204D3FFE7F0
:102AF00003208DF80F0062E0E4E7FFE7019843F65A
:102B00000041C4F20201096801F00701884212D2B3
:102B1000FFE7019943F60040C4F20200017000682B
:102B200000F007000199884204D0FFE701208DF8EA
:102B30000F0044E0FFE702980078400700280CD51A
:102B4000FFE743F60801C4F20201086820F4E050F0
:102B5000029AD26810430860FFE7029800780007E5
:102B600000280DD5FFE743F60801C4F2020108680A
:102B700020F46040029A126940EAC2000860FFE750
:102B800000F04CF843F60801C4F202010968C9B22A
:102B90000A0945F69461C0F60001895CC84040F21C
:102BA0000C01C2F20001086040F21400C2F2000001
:102BB0000068FFF757FE00208DF80F00FFE79DF833
:102BC0000F0004B080BD000040F20C00C2F2000013
:102BD0000068704780B5FFF7F7FF43F60801C4F2BD
:102BE00002010968C1F3822245F6A461C0F6000122
:102BF000895CC84080BD000080B5FFF7E5FF43F663
:102C00000801C4F20201096889B24A0B45F6A461C1
:102C1000C0F60001895CC84080BD000080B586B068
:102C20000020059004900390029043F60800C4F23F
:102C30000200006800F00C000146019140B1FFE77E
:102C4000019804280AD0FFE7019808280CD04FE02B
:102C500042F20040C0F2F40002904FE041F2002046
:102C6000C0F27A00029049E043F60400C4F2020088
:102C7000016801F03F01059100684002002813D56A
:102C8000FFE743F60400C4F202000068C0F38810B6
:102C900041F20021C0F27A01A0FB0101059A002354
:102CA000FDF75CFB049012E043F60400C4F202005E
:102CB0000068C0F3881042F20041C0F2F401A0FBAA
:102CC0000101059A0023FDF749FB0490FFE743F655
:102CD0000400C4F20200006800F44031022000EB5E
:102CE000D130039004980399B0FBF1F0029005E015
:102CF00042F20040C0F2F4000290FFE7029806B0F2
:102D000080BD000080B586B00490049820B9FFE72C
:102D100001208DF8170050E304980078C0070028C0
:102D200000F0A580FFE743F60800C4F20200006847
:102D300000F00C00042813D0FFE743F60800C4F2AB
:102D40000200006800F00C0008281ED1FFE743F6DF
:102D50000400C4F2020000684002002815D5FFE715
:102D600043F60000C4F20200006800F400310020C5
:102D7000B0EB514F08D0FFE70498406820B9FFE757
:102D800001208DF8170018E370E0FFE70498406811
:102D9000B0F5803F09D1FFE743F60001C4F202011C
:102DA000086840F48030086020E004984068B0F57E
:102DB000A02F0DD1FFE743F60001C4F2020108681D
:102DC00040F480200860086840F4803008600CE01F
:102DD00043F60001C4F20201086820F48030086064
:102DE000086820F480200860FFE7FFE7FFE7049809
:102DF0004068E8B1FFE7FFF705FD0390FFE743F602
:102E00000000C4F20200006800F400310020B0EBC2
:102E1000514F0CD1FFE7FFF7F5FC0399401A6528E5
:102E200004D3FFE703208DF81700C6E2E7E71CE0B4
:102E3000FFF7E8FC0390FFE743F60000C4F202004E
:102E4000006800F400310020B0EB514F0CD0FFE7D8
:102E5000FFF7D8FC0399401A652804D3FFE7032045
:102E60008DF81700A9E2E7E7FFE7FFE7FFE704981F
:102E700000788007002840F19680FFE743F60800BD
:102E8000C4F20200006810F00C0F13D0FFE743F605
:102E90000800C4F20200006800F00C0008282CD1E1
:102EA000FFE743F60400C4F2020000684002002875
:102EB00023D4FFE743F60000C4F20200006800F0EC
:102EC00002010020B0EB510F09D0FFE70498C06861
:102ED000012804D0FFE701208DF817006DE243F6CA
:102EE0000001C4F20201086820F0F800049A126997
:102EF00040EAC2000860FFE754E00498C06870B37D
:102F0000FFE70021C4F2472101200860FFF77AFCA7
:102F10000390FFE743F60000C4F20200006800F0EF
:102F200002010020B0EB510F0CD1FFE7FFF76AFC64
:102F30000399401A032804D3FFE703208DF81700F4
:102F40003BE2E7E743F60001C4F20201086820F023
:102F5000F800049A126940EAC200086021E00021EA
:102F6000C4F2472100200860FFF74CFC0390FFE704
:102F700043F60000C4F20200006800F002010020E5
:102F8000B0EB510F0CD0FFE7FFF73CFC0399401A60
:102F9000032804D3FFE703208DF817000DE2E7E7CD
:102FA000FFE7FFE7FFE704980078000700284BD50C
:102FB000FFE70498406918B3FFE740F68061C4F268
:102FC000472101200860FFF71DFC0390FFE743F64F
:102FD0007400C4F20200006800F002010020B0EBAF
:102FE000510F0CD1FFE7FFF70DFC0399401A03289E
:102FF00004D3FFE703208DF81700DEE1E7E722E0C6
:1030000040F68061C4F2472100200860FFF7FAFB18
:103010000390FFE743F67400C4F20200006800F07A
:1030200002010020B0EB510F0CD0FFE7FFF7EAFBE5
:103030000399401A032804D3FFE703208DF81700F3
:10304000BBE1E7E7FFE7FFE70498007840070028C7
:1030500040F1CE80FFE700208DF8070043F64000E6
:10306000C4F202000068C000002815D4FFE7FFE7A3
:103070000020009043F64000C4F20200016841F0D5
:1030800080510160006800F0805000900098FFE7D8
:1030900001208DF80700FFE747F20000C4F20000AE
:1030A0000068C005002822D4FFE747F20001C4F2FF
:1030B0000001086840F480700860FFF7A3FB0390EC
:1030C000FFE747F20000C4F200000068C0050028D6
:1030D0000CD4FFE7FFF796FB0399401A032804D3AB
:1030E000FFE703208DF8170067E1EAE7FFE7FFE756
:1030F00004988068012809D1FFE743F67001C4F203
:103100000201086840F0010008601FE00498806830
:1031100005280DD1FFE743F67001C4F202010868EB
:1031200040F004000860086840F0010008600CE00E
:1031300043F67001C4F20201086820F00100086043
:10314000086820F004000860FFE7FFE7FFE7049845
:103150008068F8B1FFE7FFF755FB0390FFE743F600
:103160007000C4F20200006800F002010020B0EB21
:10317000510F0ED1FFE7FFF745FB0399401A41F2CB
:103180008931884204D3FFE703208DF8170014E14A
:10319000E5E71EE0FFF736FB0390FFE743F670001C
:1031A000C4F20200006800F002010020B0EB510FF1
:1031B0000ED0FFE7FFF726FB0399401A41F2893151
:1031C000884204D3FFE703208DF81700F5E0E5E718
:1031D000FFE79DF80700012809D1FFE743F640010A
:1031E000C4F20201086820F080500860FFE7FFE7A2
:1031F00004988069002800F0DC80FFE743F60800AF
:10320000C4F20200006800F00C00082800F085807D
:10321000FFE70498806902285CD1FFE76021C4F2CF
:10322000472100200860FFF7EDFA0390FFE743F61F
:103230000000C4F20200006800F000710020B0EB52
:10324000516F0CD0FFE7FFF7DDFA0399401A03280E
:1032500004D3FFE703208DF81700AEE0E7E70499F9
:10326000C869D1F820C04B6A8A6A40EA0C0040EA7B
:103270008310D2034FF6FF739A43A2F580321043B6
:10328000C96A40EA016043F60401C4F20201086021
:103290006021C4F2472101200860FFF7B3FA0390D0
:1032A000FFE743F60000C4F20200006800F000717E
:1032B0000020B0EB516F0CD1FFE7FFF7A3FA0399A1
:1032C000401A032804D3FFE703208DF8170074E0A9
:1032D000E7E721E06021C4F2472100200860FFF702
:1032E00091FA0390FFE743F60000C4F20200006881
:1032F00000F000710020B0EB516F0CD0FFE7FFF73A
:1033000081FA0399401A032804D3FFE703208DF8BC
:10331000170052E0E7E7FFE74AE0049880690128D8
:1033200004D1FFE701208DF8170046E043F60400C2
:10333000C4F202000068029004988069012831D02C
:10334000FFE7029800F480000499C969884229D1F6
:10335000FFE7029800F03F000499096A884221D1F2
:10336000FFE7029847F6C07108400499496AB0EB3C
:10337000811F17D1FFE7029800F440300499896A51
:10338000C9034FF6FF729143A1F58031884209D1FC
:10339000FFE7029800F070600499C96AB0EB016F12
:1033A00004D0FFE701208DF8170006E0FFE7FFE7F4
:1033B000FFE700208DF81700FFE79DF8170006B023
:1033C00080BD000080B582B00190019800F06EFDD4
:1033D00002B080BD85B003900291FFE7039890F89A
:1033E0003C00012804D1FFE702208DF813006CE0B7
:1033F0000399012081F83C00FFE7FFE703990220D1
:1034000081F83D00039800684068019003980068C7
:1034100080680090019820F0700001900298016887
:10342000019808430190019803990968486003983E
:1034300000680021C4F2010188422AD0FFE7039806
:103440000068B0F1804F24D0FFE70398006840F295
:103450000041C4F2000188421BD0FFE703980068D6
:1034600040F60001C4F20001884212D0FFE7039841
:10347000006840F60041C4F20001884209D0FFE72D
:103480000398006844F20001C4F2010188420ED1A1
:10349000FFE7009820F080000090029841680098B3
:1034A000084300900098039909688860FFE7039932
:1034B000012081F83D00FFE70399002081F83C00DE
:1034C000FFE700208DF81300FFE79DF8130005B01B
:1034D0007047000080B58CB00B9000200A900990D6
:1034E0000890079006900B98006840F20041C4F2E3
:1034F0000001884244D1FFE7FFE70020059043F632
:103500003000C4F20200016841F00201016000686D
:1035100000F0020005900598FFE7FFE70020049007
:1035200043F63000C4F20200016841F0040101607A
:10353000006800F0040004900498FFE70120069062
:1035400002200290079000210191089109910A90B0
:1035500040F20040C4F2020006A90391FEF788FF82
:10356000019A029803998023069307900892099282
:103570000A9040F60000C4F20200FEF779FFFFE770
:103580000CB080BD80B586B00490039102920020FB
:103590008DF80700FFE7049890F83C00012804D15B
:1035A000FFE702208DF8170089E00499012081F8D7
:1035B0003C00FFE7FFE7029800900C2800F27080C3
:1035C0000099DFE801F0076D6D6D206D6D6D3A6D4E
:1035D0006D6D530004980068039900F0A7FD0498EE
:1035E0000168886940F0080088610498016888696A
:1035F00020F00400886103980269049801688869D2
:103600001043886150E004980068039900F0F4FDCD
:1036100004980168886940F4006088610498016832
:10362000886920F4806088610398026904980168C1
:10363000886940EA0220886136E0049800680399AE
:1036400000F044FE04980168C86940F00800C861B1
:1036500004980168C86920F00400C86103980269F1
:1036600004980168C8691043C8611DE004980068A7
:10367000039900F095FE04980168C86940F4006061
:10368000C86104980168C86920F48060C861039823
:10369000026904980168C86940EA0220C86103E031
:1036A00001208DF80700FFE7FFE70499002081F86B
:1036B0003C00FFE79DF807008DF81700FFE79DF835
:1036C000170006B080BD000080B582B00090009861
:1036D00020B9FFE701208DF807003FE0009890F83F
:1036E0003D0040B9FFE70099002081F83C000098B8
:1036F00000F038F8FFE70099022081F83D000099BA
:1037000051F8040B00F070FC0099012081F846008C
:10371000FFE70099012081F83E00009981F83F0001
:10372000009981F84000009981F84100FFE7FFE728
:103730000099012081F84200009981F84300009926
:1037400081F84400009981F84500FFE700990120C5
:1037500081F83D0000208DF80700FFE79DF8070085
:1037600002B080BD82B001900198006840F2004133
:10377000C4F20001884212D1FFE7FFE70020009069
:1037800043F64000C4F20200016841F0020101600A
:10379000006800F0020000900098FFE7FFE702B029
:1037A0007047000080B582B00090009820B9FFE714
:1037B00001208DF8070040E00098806908B1FFE71C
:1037C00000E0FFE7009890F8410040B9FFE700995A
:1037D000002081F84000009800F034F8FFE70099DD
:1037E000242081F8410000980168C86820F4005046
:1037F000C860009800F068FE00980168086920F42D
:103800009040086100980168486920F02A004861EA
:1038100000980168C86840F40050C8600099002012
:103820004864009A202182F84110009A82F84210E0
:10383000009948638DF80700FFE79DF8070002B084
:1038400080BD000080B588B00790002006900590EC
:103850000490039002900798006844F20041C4F27B
:103860000001884232D1FFE7FFE70020019043F6D4
:103870004000C4F20200016841F4003101600068B8
:1038800000F4003001900198FFE7FFE7002000906E
:1038900043F63000C4F20200016841F0010101600A
:1038A000006800F0010000900098FFE70C200290F3
:1038B000022003900020049005900720069000202D
:1038C000C4F2020002A9FEF7D3FDFFE708B080BDF5
:1038D00080B58AB008900791ADF81A2005930020B2
:1038E0000290089890F84100202840F08180FFE77E
:1038F000079820B1FFE7BDF81A0020B9FFE70120C3
:103900008DF8270078E00899002048640899212064
:1039100081F84100FEF776FF0290BDF81A00089981
:103920008884BDF81A000899C88408988068B0F5A2
:10393000805F09D1FFE70898006928B9FFE70020F8
:1039400004900798039004E00798049000200390E7
:10395000FFE7FFE70898C08C78B3FFE70898029B61
:1039600005996A4611608021002200F04BFE40B1AB
:10397000FFE70899202081F8410003208DF82700F7
:103980003AE0049858B9FFE7039800886FF35F2086
:1039900008990968486003980230039008E0049889
:1039A0000078089909684860049801300490FFE79E
:1039B0000899C88C0138C884CCE70898029B0599FF
:1039C0006A4611604021002200F01CFE40B1FFE772
:1039D0000899202081F8410003208DF827000BE092
:1039E0000899202081F8410000208DF8270003E08D
:1039F00002208DF82700FFE79DF827000AB080BD60
:103A0000FFE7FEE70120704743F63001C4F20201F0
:103A1000086840F0010008600021C4F20201086853
:103A200020F440600860086840F480600860042169
:103A3000C4F20201086820F0200008600821C4F2E6
:103A40000201086820F440600860086840F4806063
:103A500008600C21C4F20201086820F4406008608C
:103A60000020704782B0019000200090019868B952
:103A7000FFE7019945F6C460C0F6000050F8210048
:103A800000041821C4F20201086003E04FF0FF3087
:103A90000090FFE7009802B07047000082B00190EC
:103AA00000200090019860B9FFE7019945F6C460D5
:103AB000C0F6000050F821001821C4F2020108608D
:103AC00003E04FF0FF300090FFE7009802B070472E
:103AD00080B586B000220092059204920392029271
:103AE00040F27C10C2F20000019042F20001C4F2E8
:103AF000010101604260826001210161027680F86B
:103B00002020C2620123C0F600738362C2600523D5
:103B1000C36180F830204161FEF7F0FB18B1FFE788
:103B2000FEF7DCFAFFE700200290012103910490E8
:103B300040F27C10C2F2000002A9FEF7D3FA18B1DD
:103B4000FFE7FEF7CBFAFFE7012002900220039087
:103B500040F27C10C2F2000002A9FEF7C3FA18B1CD
:103B6000FFE7FEF7BBFAFFE7042002900320039073
:103B700040F27C10C2F2000002A9FEF7B3FA18B1BD
:103B8000FFE7FEF7ABFAFFE7102002900420039056
:103B900040F27C10C2F2000002A9FEF7A3FA18B1AD
:103BA000FFE7FEF79BFAFFE7112002900520039044
:103BB00040F27C10C2F2000002A9FEF793FA18B19D
:103BC000FFE7FEF78BFAFFE706B080BD80B590B047
:103BD00000200F900E900D900C900B90FFE70020AE
:103BE0000A9043F63000C4F20200016841F004017B
:103BF0000160006800F004000A900A98FFE7FFE700
:103C00000020099043F63000C4F20200016841F040
:103C100080010160006800F0800009900998FFE7CA
:103C2000FFE70020089043F63000C4F2020001686C
:103C300041F001010160006800F00100089008985F
:103C4000FFE7FFE70020079043F63000C4F20200D0
:103C5000016841F002010160006800F00200079075
:103C60000798FFE70020C4F2020001902021009194
:103C700000220492FEF7AEFD049A40F20040C4F226
:103C80000200059004210291FEF7A4FD04984FF470
:103C900000510B914FF404110C910D9040F600006F
:103CA000C4F202000BA90691FEF7E2FB009B01980B
:103CB000049A06990B93012303930C930D920E9291
:103CC000FEF7D6FBDDF808C0039B049A0598069919
:103CD000CDF82CC00C930D920E92FEF7C9FB10B0DC
:103CE00080BD000080B58AB0002100910991089143
:103CF000079106910591049103910291019140F27F
:103D0000C410C2F2000040F20042C4F2000202609D
:103D1000416081604FF6FF72C26001618161FFF70F
:103D2000D3FC18B1FFE7FEF7D9F9FFE700200890B0
:103D3000099040F2C410C2F2000008A9FFF74AFB44
:103D400018B1FFE7FEF7CAF9FFE7602001900020F5
:103D500002900390059040F2C410C2F2000001A945
:103D60000422FFF70FFC18B1FFE7FEF7B7F9FFE7F2
:103D700040F2C410C2F2000001A90822FFF702FCC1
:103D800018B1FFE7FEF7AAF9FFE740F2C410C2F24C
:103D90000000FFF79FFB0AB080BD000080B582B035
:103DA00040F20C20C2F20000019044F20041C4F243
:103DB000000101604FF4E131416000218160C16088
:103DC00001610C2242618161C161FFF7EBFC18B116
:103DD000FFE7FEF783F9FFE702B080BDFFE7FEE7EC
:103DE000FFE7FEE788B0079006910592079800F07C
:103DF000070004900498C0F10700052803D3FFE7EB
:103E00000420019004E00498C0F107000190FFE74E
:103E10000198039004980430062803D8FFE7002097
:103E2000009003E0049803380090FFE700980290A8
:103E300006980399012202FA01F101390840029B18
:103E4000984005999A40013A1140084308B07047DC
:103E5000704700007047000080B582B00090009865
:103E60000138B0F1807F03D3FFE70120019019E012
:103E7000009801384EF21401CEF2000108604FF0B4
:103E8000FF300F2100F000FE4EF21801CEF20001CB
:103E9000002008604EF21002CEF2000207211160ED
:103EA0000190FFE7019802B080BD000080B582B0AC
:103EB000009000980138B0F1807F03D3FFE7012024
:103EC000019019E0009801384EF21401CEF2000181
:103ED00008604FF0FF300F2100F0F8FD4EF218019E
:103EE000CEF20001002008604EF21002CEF2000275
:103EF000072111600190FFE7019802B080BD00002A
:103F000080B501F0E5F940F25821C2F200010868DD
:103F100001300860FEF77CFC80BD000080B594B0E5
:103F200008A83021FCF79EFA002007900690059023
:103F300004900390FFE70020029043F64000C4F293
:103F40000200016841F080510160006800F080507B
:103F500002900298FFE7FFE70020019047F200007F
:103F6000C4F200000168022262F38F310160006830
:103F700000F4404001900198FFE7022008900121E1
:103F80000B9110210C910E9000200F9008201090A2
:103F900080201190042012900720139008A8FEF7AB
:103FA000B1FE18B1FFE7FEF799F8FFE70F20039085
:103FB00002210491002005904FF4A0500690079034
:103FC00003A8FEF7CFFC18B1FFE7FEF787F8FFE77D
:103FD00014B080BD4EF68851CEF20001086840F45E
:103FE000700008607047000083B002900191029851
:103FF0000068009002980021C4F2010188421DD09F
:10400000FFE70298B0F1804F18D0FFE7029840F226
:104010000041C4F20001884210D0FFE7029840F648
:104020000001C4F20001884208D0FFE7029840F680
:104030000041C4F2000188420AD1FFE7009820F055
:104040007000009001984168009808430090FFE7D5
:1040500002980021C4F20101884235D0FFE702989E
:10406000B0F1804F30D0FFE7029840F20041C4F237
:104070000001884228D0FFE7029840F60001C4F210
:104080000001884220D0FFE7029840F60041C4F2C8
:104090000001884218D0FFE7029844F20001C4F200
:1040A0000101884210D0FFE7029844F20041C4F2B7
:1040B0000101884208D0FFE7029844F60001C4F2EB
:1040C000010188420AD1FFE7009820F44070009077
:1040D0000198C168009808430090FFE7009820F01D
:1040E000800001994969084300900198806802990D
:1040F000C862019800680299886202980021C4F29F
:104100000101884205D1FFE701980069029908631F
:10411000FFE70299086840F0040008600299012056
:10412000486100980299086003B0704785B0049018
:1041300003910498006A01900499086A20F0010034
:104140000862049840680090049880690290029880
:1041500020F070000290029820F003000290039873
:104160000168029808430290019820F00200019033
:104170000398816801980843019004980021C4F2D3
:10418000010188420ED1FFE7019820F0080001905C
:104190000398C168019808430190019820F0040039
:1041A0000190FFE704980021C4F20101884213D175
:1041B000FFE7009820F480700090009820F40070D1
:1041C0000090039841690098084300900398816922
:1041D000009808430090FFE700980499486002980F
:1041E0000499886103984068049948630198049988
:1041F000086205B07047000085B0049003910498F0
:10420000006A01900499086A20F01000086204987E
:1042100040680090049880690290029820F4E04081
:104220000290029820F4407002900398016802986E
:1042300040EA01200290019820F0200001900398AC
:104240008168019840EA0110019004980021C4F2AD
:10425000010188420FD1FFE7019820F08000019012
:104260000398C168019840EA01100190019820F07C
:1042700040000190FFE704980021C4F20101884248
:1042800015D1FFE7009820F480600090009820F49A
:104290000060009003984169009840EA8100009016
:1042A00003988169009840EA81000090FFE7009838
:1042B00004994860029804998861039840680499B9
:1042C000886301980499086205B0704785B004902E
:1042D00003910498006A01900499086A20F48070A0
:1042E00008620498406800900498C069029002989F
:1042F00020F070000290029820F0030002900398D2
:104300000168029808430290019820F4007001901F
:1043100003988168019840EA0120019004980021E7
:10432000C4F2010188420FD1FFE7019820F4006038
:1043300001900398C168019840EA0120019001981A
:1043400020F480600190FFE704980021C4F201018D
:10435000884215D1FFE7009820F480500090009823
:1043600020F40050009003984169009840EA011041
:10437000009003988169009840EA01100090FFE7DF
:1043800000980499486002980499C86103984068AD
:104390000499C86301980499086205B07047000049
:1043A00085B0049003910498006A01900499086A0A
:1043B00020F4805008620498406800900498C06916
:1043C0000290029820F4E0400290029820F440709D
:1043D000029003980168029840EA01200290019837
:1043E00020F40050019003988168019840EA013060
:1043F000019004980021C4F2010188420BD1FFE72B
:10440000009820F48040009003984169009840EAA9
:1044100081100090FFE70098049948600298049981
:10442000C861039840680499086401980499086277
:1044300005B0704784B00390FFE7FFE7039800687A
:1044400050E8030F20F490700290FFE70299039860
:10445000026842E803100028F0D1FFE7FFE7FFE71A
:10446000FFE70398006850E8050F20F00100019075
:10447000FFE701990398026842E805100028F0D18F
:10448000FFE7FFE70398006B012814D1FFE7FFE780
:10449000FFE70398006850E8030F20F01000009039
:1044A000FFE700990398026842E803100028F0D162
:1044B000FFE7FFE7FFE70399202081F84200039917
:1044C0000020086304B0704780B586B00590059859
:1044D0000068006920F44050059A1168D2681043C2
:1044E0000861059988680B694A69C96918431043CE
:1044F0000843049005980068C06849F20C6188433D
:104500000499084305990968C860059800684069DE
:1045100020F44070059A116892691043486105982B
:10452000006841F20001C4F20101884209D0FFE7AE
:104530000598006841F20041C4F20101884204D1AB
:10454000FFE7FEF759FB039003E0FEF743FB039000
:10455000FFE70598C069B0F5004F29D1FFE7039840
:104560001921A0FB0101059A1368029353685A00B0
:10457000DB0FFBF7F3FE0299864648F21F53C5F2A4
:10458000EB13AEFB0320420910014FF0640C02FB59
:104590001CEC322202EBCC02A2FB0332F82303EA2A
:1045A000521300EB4300C2F342121044886026E02D
:1045B00003981921A0FB0101059A13680193536820
:1045C0009A009B0FFBF7CAFE0199844648F21F52DE
:1045D000C5F2EB12ACFB02304309642003FB10CCA4
:1045E000322000EB0C10A0FB0202F02000EA521077
:1045F00000EB0310C2F3431210448860FFE706B0DB
:1046000080BD000080B586B0DDF820C00490039125
:104610008DF80B200193FFE7049800680068039968
:104620000840401AB0FA80F040099DF80B1088420B
:104630004DD1FFE708980130002847D0FFE7FEF78B
:10464000E1F80199401A0899884203D8FFE70898D1
:1046500020B9FFE703208DF817003CE004980068BC
:10466000C0684007002830D5FFE7039880282CD089
:10467000FFE70398402828D0FFE704980068006807
:1046800000F008010120B0EBD10F1DD1FFE7FFE7DB
:10469000002000900498006800680090049800686A
:1046A000406800900098FFE70498FFF7C3FE049964
:1046B00008204864FFE70499002081F84000FFE7E4
:1046C00001208DF8170006E0FFE7FFE7A4E70020D0
:1046D0008DF81700FFE79DF8170006B080BD0000B9
:1046E00082B00190FFE70198007838B3FFE70198A6
:1046F000411C0191007844F20441C4F200010860B9
:10470000FFE744F20040C4F20000016801200906FE
:10471000002900900CD5FFE744F20040C4F20000ED
:10472000006800F04001012080EA91100090FFE74E
:104730000098C00708B1FFE7E3E7D4E702B070478D
:1047400081B0FFE740F27420C2F20000006840F23E
:104750007821C2F200010968884201D1FFE7F1E740
:1047600040F27820C2F2000001684A1C0260097819
:104770008DF80310006840F26721C2F200010A318F
:1047800088420AD3FFE740F27821C2F2000140F2EA
:104790006720C2F200000860FFE79DF8030001B047
:1047A0007047000081B040F27420C2F2000000683F
:1047B00040F27821C2F200010968884204D1FFE783
:1047C00000208DF8030003E001208DF80300FFE7CF
:1047D0009DF8030001B0704780B584B000208DF8CB
:1047E0000E0040F25C20C2F2000000788DF80F004D
:1047F000602800F3C580FFE79DF80F0044380146AC
:104800000291122800F2B7800299DFE801F00AB4A1
:10481000B4B4B4B4B4B4B4B43AB4B464B4B4B4B422
:10482000950040F25C20C2F200004078452823D178
:10483000FFE740F25C20C2F20000807842281BD1E2
:10484000FFE740F26620C2F200000078032813D18F
:10485000FFE740F27711C2F200010220087045F62E
:10486000E160C0F6000000F0B9F840F27811C2F241
:1048700000010020087003E001208DF80E00FFE722
:104880007DE040F25C20C2F2000040784F281DD14C
:10489000FFE740F25C20C2F200008078522815D178
:1048A000FFE740F26620C2F20000007803280DD135
:1048B000FFE740F27711C2F200010120087045F6CF
:1048C000EF60C0F6000000F089F803E001208DF8E9
:1048D0000E00FFE753E040F25C20C2F20000407897
:1048E000552824D1FFE740F25C20C2F20000807816
:1048F00049281CD1FFE740F26620C2F20000007890
:10490000032814D1FFE740F27711C2F20001002022
:104910000190087045F6FE60C0F6000000F05EF8F9
:10492000019840F27811C2F20001087003E0012002
:104930008DF80E00FFE722E040F27711C2F200018D
:104940000320087045F6DE60C0F6000000F046F86F
:1049500045F68270C0F6000000F040F845F61C7085
:10496000C0F6000000F03AF840F27811C2F20001FF
:104970000020087003E001208DF80E00FFE704E03E
:1049800001208DF80E00FFE7FFE79DF80E000128DB
:1049900007D1FFE745F67370C0F6000000F01EF87F
:1049A00013E09DF80E00022807D1FFE745F652708C
:1049B000C0F6000000F012F806E040F26621C2F2F4
:1049C000000100200870FFE7FFE740F26621C2F215
:1049D00000010020087004B080BD000081B000908C
:1049E000FFE70098007800B3FFE70098411C0091B2
:1049F000017840F2B420C2F200000268531C036048
:104A00001170006840F28921C2F200012831884209
:104A10000AD3FFE740F2B421C2F2000140F289203C
:104A2000C2F200000860FFE7DBE701B0704700005A
:104A300081B08DF803009DF8031040F2B420C2F25B
:104A400000000268531C03601170006840F2892165
:104A5000C2F20001283188420AD3FFE740F2B421B4
:104A6000C2F2000140F28920C2F200000860FFE7B4
:104A700001B07047FFE7FEE74EF60C50CEF20000A3
:104A80000068C0F30220704782B08DF807000091E3
:104A90009DF9070000280AD4FFE7009800019DF95E
:104AA00007104EF20042CEF2000288540BE000984C
:104AB00000019DF8071001F00F014EF61452CEF2DE
:104AC00000028854FFE702B07047000082B08DF802
:104AD000070000919DF9070000280AD4FFE700981D
:104AE00000019DF907104EF20042CEF200028854F8
:104AF0000BE0009800019DF8071001F00F014EF641
:104B00001452CEF200028854FFE702B07047000052
:104B100083B00290029800F0070000904EF60C510E
:104B2000CEF200010868019001984FF6FF02104094
:104B300001900198009A40EA02200022C0F2FA5245
:104B4000104301900198086003B0704783B0019052
:104B50000198009048F2010188420CD0FFE70098CC
:104B600048F20201884209D0FFE7009848F20301A9
:104B7000884206D008E00020029009E00020029060
:104B800006E00020029003E04FF0FF300290FFE7C4
:104B9000029803B07047000083B001900198009024
:104BA00048F2010188420CD0FFE7009848F2020168
:104BB000884209D0FFE7009848F20301884206D0F6
:104BC00008E00020029008E00020029005E00020AC
:104BD000029002E000200290FFE7029803B07047C5
:104BE00083B001900198009048F2010188420CD0F6
:104BF000FFE7009848F20201884209D0FFE70098D9
:104C000048F20301884206D008E00120029008E043
:104C10000120029005E00120029002E000200290B5
:104C2000FFE7029803B0704780B584B0029001910D
:104C3000029820B9FFE74FF0FF30039033E002986D
:104C400000783A282BD1FFE7029846F23901C0F6E6
:104C50000001FBF731FC20B9FFE748F201000390A7
:104C600021E0029846F24801C0F60001FBF724FC5F
:104C700020B9FFE748F20200039014E0029846F2E0
:104C80004001C0F60001FBF717FC20B9FFE748F22E
:104C90000300039007E04FF0FF30039003E04FF074
:104CA000FF300390FFE7039804B080BD84B002900A
:104CB00001910298009048F2010188420CD0FFE770
:104CC000009848F2020188420AD0FFE7009848F2B3
:104CD0000301884208D00BE04FF0FF3003900BE057
:104CE0004FF0FF30039007E04FF0FF30039003E0F8
:104CF0004FF0FF300390FFE7039804B070470000C7
:104D000080B588B0069005910492039306980190AF
:104D100048F2010188420CD0FFE7019848F20201F5
:104D200088420AD0FFE7019848F20301884218D070
:104D30001AE04FF0FF3007901AE0FFE7049868B1DF
:104D4000FFE70598411C059100780290029800F059
:104D5000ADFAFFE7049801380490EFE700200790D0
:104D600006E00020079003E04FF0FF300790FFE7D8
:104D7000079808B080BD000080B582B0FFE7FFF75C
:104D800011FD002800F09E80FFE7FFF7D9FC8DF8A9
:104D900007009DF807000D2809D1FFE745F691703F
:104DA000C0F60000FFF71AFEFFF716FD89E09DF838
:104DB0000700022805D0FFE79DF80700FFF738FE3F
:104DC00000E0FFE79DF80700082816D1FFE740F252
:104DD0006620C2F20000007870B1FFE745F6C860B7
:104DE000C0F60000FFF7FAFD40F26621C2F20001B2
:104DF000087801380870FFE762E040F26620C2F2EE
:104E0000000000780A280DDBFFE745F66770C0F662
:104E10000000FFF7E3FD40F26621C2F2000100202E
:104E200008704CE040F27710C2F20000007870BBCE
:104E3000FFE740F25C20C2F200000078022826D092
:104E4000FFE740F25C20C2F20000007844281ED048
:104E5000FFE740F25C20C2F2000000784E2816D036
:104E6000FFE740F25C20C2F20000007856280ED026
:104E7000FFE740F26620C2F20000007838B1FFE799
:104E800040F26621C2F200010020087016E09DF891
:104E9000071040F26620C2F20000037840F25C2264
:104EA000C2F20002D1540178013101700078032868
:104EB00003DBFFE7FFF790FCFFE7FFE7FFE7FFE714
:104EC000FFE75CE702B080BD80B588B000200790A6
:104ED000FDF7ACFCFFF722F8FFF720F840F20C00DA
:104EE000C2F20000006841F25971CDF2B711A0FB87
:104EF0000110400BFEF7B0FFFEF768FEFEF7E8FD7D
:104F0000FEF7F0FEFEF74AFFFFE7FEF77BFD069097
:104F1000002002900590FEF777FDFDF7B7F845F603
:104F2000E770C0F60000FBF791FA0298049040F297
:104F30007421C2F2000140F26720C2F20000086052
:104F400040F27821C2F20001086040F2B421C2F2BE
:104F5000000140F28920C2F20000086040F2B8214E
:104F6000C2F20001086045F6F970C0F60000FFF7D4
:104F7000B7FB45F68270C0F60000FFF7B1FB45F6BF
:104F8000DE60C0F600000390FFF7AAFB46F21400B3
:104F9000C0F60000FFF7A4FB0398FFF7A1FB00F0A9
:104FA0005FF9FFE700F0A0F8FFF7E6FE00F01EF85B
:104FB00040F27410C2F2000000886FF35F30B0F569
:104FC000805F0FDBFFE70598FEF768FD4FF4FA708E
:104FD0000190FDF72BFA0598FEF744FD0198FDF7C7
:104FE00025FAFFE7049801300490DBE780B582B032
:104FF00040F27710C2F200000078014601910328C8
:1050000068D80199DFE801F002163E0F45F60C70F2
:10501000C0F60000FFF7E2FC40F27611C2F2000198
:10502000002008705DE040F27611C2F2000100201D
:10503000087056E040F27610C2F2000000780128B5
:105040001FD1FFE745F64870C0F60000FFF7C6FC29
:1050500045F63770C0F60000FFF7C0FC45F6277034
:10506000C0F60000FFF7BAFC45F62F70C0F600004E
:10507000FFF7B4FC40F27611C2F200010020087084
:10508000FFE72EE040F27610C2F20000007801281F
:105090001FD1FFE745F63F70C0F60000FFF79EFC0A
:1050A00045F63770C0F60000FFF798FC45F627700C
:1050B000C0F60000FFF792FC45F62F70C0F6000026
:1050C000FFF78CFC40F27611C2F20001002008705C
:1050D000FFE706E045F6C970C0F60000FFF77EFC6A
:1050E000FFE702B080BD000044F20040C4F20000BF
:1050F00000680007002813D5FFE740F27911C2F2DB
:10510000000108780130087044F20C41C4F200013B
:10511000086800200860086840F004000860FFE7A5
:1051200044F20040C4F2000000688007002818D54F
:10513000FFE740F27911C2F20001087801300870EF
:1051400044F20440C4F20000006844F20C41C4F28E
:105150000001086800200860086840F0040008604A
:105160002AE044F20040C4F20000006880060028F3
:1051700021D5FFE744F20440C4F20000016840F288
:105180007420C2F200000268531C036011700068B2
:1051900040F26721C2F200010A3188420AD3FFE7D8
:1051A00040F27421C2F2000140F26720C2F2000016
:1051B0000860FFE7FFE7FFE744F20040C4F20000A9
:1051C00000680006002843D5FFE740F2B420C2F291
:1051D0000000006840F2B821C2F20001096888426C
:1051E0002ED0FFE740F27710C2F20000007838B30B
:1051F000FFE740F2B820C2F2000001684A1C0260DA
:10520000097844F20442C4F200021160006840F2DE
:105210008921C2F20001283188420AD3FFE740F217
:10522000B821C2F2000140F28920C2F200000860F9
:10523000FFE740F2B121C2F200010120087006E050
:1052400040F2B121C2F2000100200870FFE7FFE741
:1052500040F27C21C2F2000101200870704700007A
:1052600080B545F69470C0F60000FFF739FA45F6B0
:10527000B570C0F60000FFF733FA45F6D470C0F6FB
:105280000000FFF72DFA45F6A270C0F60000FFF708
:1052900027FA45F6CB60C0F60000FFF721FA45F685
:1052A0001070C0F60000FFF71BFA80BD80B582B019
:1052B0000190009140F20C20C2F2000001A90122ED
:1052C0004FF0FF33FEF704FB019802B080BD0000F1
:1052D00080B540F61801C4F202010820086040F2CF
:1052E0008820C2F20000017801310170007840B9D5
:1052F000FFE740F25521C2F2000108780130087042
:10530000FFE740F27D20C2F200000078012808DBB0
:10531000FFE740F27D21C2F20001087801380870F1
:10532000FFE740F27E20C2F200000078012808DB8F
:10533000FFE740F27E21C2F20001087801380870D0
:10534000FFE740F28820C2F200000078C00708B1F1
:10535000FFE7CDE040F28820C2F20000007880072D
:10536000002821D5FFE740F27F20C2F2000000783C
:10537000012808DBFFE740F27F21C2F20001087834
:1053800001380870FFE740F28020C2F20000007888
:10539000012808DBFFE740F28021C2F20001087813
:1053A00001380870FFE7A2E040F28820C2F2000056
:1053B00000784007002801D5FFE797E040F28820F9
:1053C000C2F2000000780007002801D5FFE78CE05A
:1053D00040F28820C2F200000078C006002821D5E3
:1053E000FFE740F28120C2F200000078012808DBCC
:1053F000FFE740F28121C2F200010878013808700D
:10540000FFE740F28220C2F200000078012808DBAA
:10541000FFE740F28221C2F20001087801380870EB
:10542000FFE761E040F28820C2F2000000788006C9
:10543000002821D5FFE740F28320C2F20000007867
:10544000012808DBFFE740F28321C2F2000108785F
:1054500001380870FFE740F28420C2F200000078B3
:10546000012808DBFFE740F28421C2F2000108783E
:1054700001380870FFE736E040F27810C2F2000011
:105480000178013901700078012807D1FFE740F267
:105490007611C2F2000101200870FFE740F25420AB
:1054A000C2F20000007850B9FFE740F25421C2F286
:1054B00000019C2008700020FEF7D4FAFFE740F2BC
:1054C0005420C2F2000000784E2804D1FFE70020EB
:1054D000FEF7E4FAFFE740F25421C2F20001087837
:1054E00001380870FFE7FFE7FFE7FFE7FFE7FFE7A7
:1054F00040F25520C2F200000078C00740B1FFE73B
:1055000040F28820C2F20000007808B9FFE7FFE708
:1055100040F28621C2F2000108880130088040F67E
:105520001801C4F202014FF40020086080BD5FEA58
:10553000400C08BF91F0000F4FEA8C234FEAC122C4
:1055400043EA51514FEA1C5018BF00F5F0404FEAB2
:10555000300018BF41F000415FEA6C5C00F0298028
:10556000BCF1FF3F08BF40F080407047130C06BFFE
:1055700012044FF0100C4FF0000C130E04BF120277
:105580000CF1080C130F04BF12010CF1040C930F63
:1055900004BF92000CF1020CD30F04BF52000CF1B7
:1055A000010C11464FF00002A0F11F00A0EB0C000F
:1055B000704711F0004F08BF704731F000413FF4D1
:1055C000D5AF0B0C06BF09044FF0100C4FF0000CC8
:1055D0000B0E04BF09020CF1080C0B0F04BF0901EC
:1055E0000CF1040C8B0F04BF89000CF1020CCB0FE3
:1055F00004BF49000CF1010CCCF1200322FA03F3A3
:1056000041EA030102FA0CF2A0EB0C0000F10100E8
:105610007047000023F07F4720F07F4C80EA0300B2
:1056200000F00040ACEB070303F57C5303F1FF03EC
:105630002DE9804909B44FEA144324EA03484FEAAC
:10564000154B25EA0B4E0FF2042606EB13273E7886
:1056500003FB0667C7F5000707FB06F64FEAD646C9
:1056600006F102064FEA543707FB066CCCF1005CEA
:105670004FEA1C472CEA074C0CFB06F507FB06F427
:1056800004EB15464FEA961649085FEA320234BF2A
:1056900000204FF000404FEAD13706FB07FC4FEAED
:1056A0001C4C0CFB0BF7D21B03FB0CF761EB070147
:1056B0000CFB0EF7B0EB074072EB17420CFB08F740
:1056C00034BFA2EB0742B2EB074261EB17414FEA4E
:1056D0000C444FEA910706FB07FC4FEA1C4C0CFBFD
:1056E0000BF7B0EBC74072EB573203FB0CF734BF3C
:1056F000A2EBC742B2EBC74261EB57310CFB0EF78E
:10570000B0EBC70072EB57720CFB08F734BFA2EB8B
:10571000C702B2EBC70261EB57714FEA816141EA00
:1057200092114FEA826242EA90124FEA806004EBE3
:10573000CC04039F4FEAD13706FB07FC4FEA1C4C11
:105740000CFB0BF7D21B03FB0CF761EB07010CFB07
:105750000EF7B0EB074072EB17420CFB08F734BFB3
:10576000A2EB0742B2EB074261EB17414FEA8C55BF
:1057700004EB9C244FEA910706FB07FC4FEA1C4C04
:105780000CFB0BF7B0EBC74072EB573203FB0CF787
:1057900034BFA2EBC742B2EBC74261EB57310CFBFF
:1057A0000EF7B0EBC70072EB57720CFB08F734BF73
:1057B000A2EBC702B2EBC70261EB57714FEA8161FE
:1057C00041EA92114FEA826242EA90124FEA806007
:1057D00015EB4C2544F100044FEAD13706FB07FCDA
:1057E0004FEA1C4C0CFB0BF7D21B03FB0CF761EBD5
:1057F00007010CFB0EF7B0EB074072EB17420CFBF6
:1058000008F734BFA2EB0742B2EB074261EB174146
:105810004FEA813141EA92414FEA823242EA9042B4
:105820004FEA80304FEA0C7615EB1C1544F100046A
:1058300048EA03434EEA0B484FF0000EB2EB080C67
:1058400071EB030724BF624639464EEB0E0E4FF054
:10585000000B0018524149414BEB0B0BB2EB080C0B
:1058600071EB03077BF1000B24BF624639464EEB18
:105870000E0E4FF0000B0018524149414BEB0B0B41
:10588000B2EB080C71EB03077BF1000B24BF6246FF
:1058900039464EEB0E0E51EA020718BF46F00106DC
:1058A00016EB0E7655F1000254F1000103D5BDE868
:1058B0008901BDE80088BDE88901BDE80048B61946
:1058C000524141EB0101A3F10103704780807F7ECB
:1058D0007D7C7B7A79787776767574737271717066
:1058E0006F6E6E6D6C6C6B6A6A6968686766666518
:1058F0006464636362616160605F5F5E5E5D5D5CA6
:105900005C5B5B5A5A595958585757565655555516
:105910005454535352525251515050504F4F4F4E76
:105920004E4D4D4D4C4C4C4B4B4B4A4A4A494949C4
:105930004848484747474746464645454544444406
:105940004443434343424242424141419C46002B2F
:1059500030D477002BD04FEA37071CB503B44FF093
:1059600010004FF01001BAF1000F06D0BCF1000F8B
:10597000DCBF40F0080040F008014FF000000FBC11
:10598000BDE810400BF1010BBBF1010F08BF5FEA4E
:10599000170722BF12F1010211F101014FF000417E
:1059A00043F1000300F0004043EA00007047F9D3E0
:1059B0005708D0E746EA06464FEA164613F1400F6D
:1059C0001FDD13F1200FDFBF16430A4600212033ED
:1059D0005B42BED0C3F1200746EA06464FEA1646B0
:1059E00002FA07F746EA070622FA03F2C3F1200794
:1059F00001FA07F742EA070221FA03F14FF0000328
:105A0000A7E746EA020646EA06464FEA164646EA8F
:105A10000106BCBF46EA0646360C4FF000034FF0C5
:105A200000024FF0000194E72DE9804C70B49A46D3
:105A3000934691E8380007C831EA400C48BF34EA81
:105A4000430C03D5FFF7E6FDFFF780FFF0BCBDE890
:105A5000008C2DE9804C70B49A46934691E838004A
:105A600007C810F0804F08BF13F0804F03D100F03B
:105A700005F8FFF76BFFF0BCBDE8008C20F07F4716
:105A800023F07F4C80EA030000F0004007EB0C039A
:105A9000A3F57C53A3F1FE0392F0000F00F0B38056
:105AA00095F0000F00F077802DE901494FEA114091
:105AB00021EA00484FEA144624EA064700FB06FCA8
:105AC00008FB06F607FB08F818EB06484CEB164CEB
:105AD00000FB07F718EB07484CEB17404FEA124B57
